:1000000040C000004EC000004CC000004AC00000CC
:1000100048C0000046C0000044C0000042C00000CC
:1000200040C000003EC000003CC000003AC00000DC
:1000300038C0000036C0000034C0000032C00000EC
:1000400030C000002EC000002CC000002AC00000FC
:1000500028C0000026C0000024C0000022C000000C
:1000600020C000001EC00000000853544B35303043
:100070005F3220676F72504D564E65736172454D09
:10008000564E11241FBECFEFD8E0DEBFCDBF22E019
:10009000A0E0B1E001C01D92AF31B207E1F7E4D1B9
:1000A0002DC4AECF84E085BD8FE787BD8BE092E0A5
:1000B000A99BFECF95BB8150D9F782EC84BDA99B4B
:1000C000FECF82E085BB5698089515BC97E297BD98
:1000D0009CE096BD92E095BB5E984E99FECF91E074
:1000E00095BDA99BFECF92E095BB9FE497BD28E00C
:1000F00032E0A99BFECF35BB99B1990F90788695D8
:10010000892B2150B1F7A99BFECF92E095BB97ECCC
:1001100097BD4E9BFECF5E9A90E00895A99BFECFBF
:1001200092E095BB15BC2FE427BD2EE426BD22E846
:1001300024BD21E025BD569A95BB91E020E042E820
:1001400052EC32E0682F6923D9F054BD2095A99B69
:10015000FECF35BB990FB1F792EC211101C092E8A7
:1001600094BDA99BFECF92E095BB92EC94BDA99B58
:10017000FECF92E095BB9FE997BD569890E0089519
:1001800044BDE5CFCF93C82F85E5C8DF84E4C6DF43
:1001900080E0C4DF80E1C2DF98DF8C2FBFDFCF912A
:1001A00094CFCF93C82F85E5B9DF84E6B7DF8C2FD6
:1001B000B5DFCF918ACFCF93DF93D82FC92F85E5B5
:1001C000ADDF89E6ABDF8D2FA9DF8C2FA7DFDF91B5
:1001D000CF917BCFCF93C82F85E5A0DF80E88C0F30
:1001E0009DDF73DFCF910895CF93DF93D82FC62F74
:1001F00085E594DF80EC8D0F91DF8C2FDF91CF911F
:100200008DCF8091C00087FFFCCF8091C6000895FC
:100210009091C00095FFFCCF8093C600089585E5BE
:100220007DDF84E07BDF82E079DF80E177DF4DDF17
:100230008370A9F783E0A6CFFF920F931F93CF930C
:10024000DF93082FEB0185E569DF80EA67DF8FEF39
:10025000800F64DFE88181E08E0F8883F0E0E45F47
:10026000FE4F80819EDFF12C0150110BF01611061C
:1002700064F4E88181E08E0F8883F0E0E45FFE4F54
:1002800080814CDF22DFF394F1CFDF91CF911F917A
:100290000F91FF9008950F931F93CF93DF938C01DD
:1002A00085E53CDF80EE3ADFD0E0C0E0F801EC0FFE
:1002B000FD1F849133DF2196C830D105B9F7DF9156
:1002C000CF911F910F9108951092090192E09093A0
:1002D000080180930D010895EF92FF920F931F93F1
:1002E000CF93DF930F92CDB7DEB7062F10910E019B
:1002F00020910A0130910B017901442311F0EE0C99
:10030000FF1CE80EF91E812F90E0442311F0959513
:100310008795820F931F90930B0180930A01C70169
:100320004ADF8AE08983E1948FEF800FE822F12E83
:10033000E11608F4FE2CFF2039F0BE016F5F7F4FFD
:100340008F2D7ADF1F196BDF112361F0BE016F5F04
:100350007F4F101720F0802F6FDF101BF4CF812FFD
:100360006BDF5DDF80E0B0DF0F90DF91CF911F91F9
:100370000F91FF90EF9008958AE790E08CDF69E598
:1003800088E032DF60E088E02FDF8BE023DF80FD54
:10039000FCCF80E099CFDF92EF92FF920F931F93F3
:1003A000CF93DF937C01D62E8BE014DF883049F0A9
:1003B00080ECDF91CF911F910F91FF90EF90DF9034
:1003C00083CFC0910D01D0910E01DC27CD27DC2712
:1003D0008E010E5F1F4F40910A0150910B01CA011F
:1003E000DD2011F0880F991F8E0D9F1D9E01DD20CD
:1003F00011F036952795240F351F30930B0120936C
:100400000A01D9DE85E58ADE80EA88DE8C2F8150FC
:1004100085DE85E583DE84E281DE57DE80930E0192
:1004200083E0E82EF12CE016F10648F44EDEF701E9
:10043000E45FFE4F80838FEFE81AF80AF4CFF801EB
:10044000E45FFE4F108210920D01CE01039690934F
:100450000901CD5FC0930801DF91CF911F910F91EA
:10046000FF90EF90DF9008958FE380937E008FEFF1
:100470008BB98FED85B980E880BF8DEC80936400E7
:1004800082E08093C00090E19093C40098E1909343
:10049000C10096E09093C2005E9A92EC94BD2EE467
:1004A00026BD3FE437BD91E095BD47E3409306018B
:1004B00040E24093070115BC37BD26BDC2E8C4BD6C
:1004C00095BD569A85BBEEDDC4BDA99BFECF82E0EB
:1004D00085BB569AE7DDA99BFECF82E085BB8FE402
:1004E00087BD8EE486BD81E085BD66E082E07CDE6E
:1004F0004D9B42DF8BE06EDEC0E0823809F03CC0ED
:1005000055E1552E60EB662E04E073E0972EEAE08D
:100510008E2EF2E07F2EA7E1AA2EA1E0BA2E71DE88
:100520008B31E9F76EDE482E809305016ADED82F05
:100530008093090166DEC82F8093080162DE8E3049
:1005400071F7342C3C2635243D263CE0E32E31E087
:10055000F32E8D2F90E0982F8827C80FD92FD11D0B
:10056000C45FDE4F6701CC15DD05C1F04ADEF60140
:1005700081936F013826F7CF8C2F2CDE49DECF5FB9
:10058000C031D1F7259A1D9A2FEF89E698E12150C5
:1005900080409040E1F700C00000F5CF32DE381215
:1005A00060920C0180910C01843109F445C108F07E
:1005B0005CC0863009F40DC108F03EC0823009F4F9
:1005C000D2C0833009F485C0813009F03CC010925C
:1005D00009018BE080930801E8E6F0E0ADE0B1E0CE
:1005E00084918D933196AA16BB06D1F78BE110DE6C
:1005F000D82E842D0DDED826D09109018D2F08DE4E
:10060000D826C09108018C2F03DED8268EE000DEAC
:10061000D8268D2F90E0982F8827C80FD92FD11D6D
:10062000C45FDE4FCE15DF0509F465C1F701819186
:100630007F01EEDDD826F6CF813109F4EAC028F437
:10064000803109F4D0C089EC42C0823109F451C133
:100650008331C9F78BE0BEDD883009F0E0C041E0AE
:1006600060E480E090E838DEC1CF883109F4F7C05B
:1006700018F5863109F4E8C008F426C180910E010E
:10068000803AA9F4812F90E090930B0180930A01A6
:1006900086E090E190DD8091100183DD80E081DDD6
:1006A00080E8810F7EDD82E17CDD87E06BDD1092EA
:1006B00009019092080136C08A3109F4E3C008F4B8
:1006C00014C18B3109F4E7C0803B09F0BCCFFCDDDD
:1006D0008DCF8093080180910D018639C1F1C8F456
:1006E000813939F058F48138E9F08039D9F080380F
:1006F00051F470920E0110920D0178CF8439F9F007
:1007000018F58239C9F07092080180EC80930D01D0
:100710006DCF8E3950F48C3928F48839F1F0D0F04F
:100720008A3989F710920E01E6CF8E39C9F08F39D8
:1007300051F78091000105C080920E01DCCF8091BD
:10074000060180930E01D7CF80910701FACF8091E7
:100750000401F7CF80910301F4CF80910201F1CF22
:1007600080910101EECF8093080180910D018739BE
:1007700009F150F48539A1F0C0F4843931F6809143
:100780000E0180930601B7CF8E39C9F08F39E1F0A1
:10079000883909F0BACF80910E0180930201ABCF66
:1007A00080910E0180930701A6CF80910E01809366
:1007B0000401A1CF80910E01809303019CCF809111
:1007C0000E018093010197CF80910E01809300016B
:1007D00092CF8091100180930A0180910F01809344
:1007E0000B0180E074CF8BE0F5DC883079F0823843
:1007F000B1F482E790E04FDD69E588E0F5DC60E088
:1008000088E0F2DC8BE0E6DC8830E1F784E0BADCFB
:10081000E8CF8BE0DFDC883021F0823811F380EC08
:1008200056CF69E588E0E0DC60E088E0DDDC8BE065
:10083000D1DC8238E1F7D5CF9091070161E080E00B
:10084000990F990FA8DDD2CE80910601873321F050
:1008500080E093E160E0F6CF80E094E1FBCF80910F
:100860000F0181110FC0812F90E090930B018093B5
:100870000A0110920D0181E080930E0160E080E892
:1008800092E1E0CF109209010093080110930E014C
:1008900010920F0130CF8091100190E090930B01E6
:1008A00080930A01029739F410920901009308011C
:1008B00080920E01EDCF10920D0181E080930E0128
:1008C00060E080E091E1BECF80910601C0E0D3E11D
:1008D000873311F4C0E0D4E18BE07CDC883009F090
:1008E0009ECF40E060E2CE01BECE109110011F739A
:1008F000C5CE42DD7BCE8D2D8BDC11CEF894FFCFA3
:00000001FF
