:1000000047C0000055C0000053C0000051C00000B0
:100010004FC000004DC000004BC0000049C00000B0
:1000200047C0000045C0000043C0000041C00000C0
:100030003FC000003DC000003BC0000039C00000D0
:1000400037C0000035C0000033C0000031C00000E0
:100050002FC000002DC000002BC0000029C00000F0
:1000600027C0000025C00000000B434849505F4CEA
:100070004F434B4544000853544B3530305F3220DA
:10008000676F72504D564E65736172454D564E0006
:1000900011241FBECFEFD8E0DEBFCDBF22E0A0E02D
:1000A000B1E001C01D92AF31B207E1F7FCD143C40A
:1000B000A7CF84E085BD8FE787BD8BE092E0A99B49
:1000C000FECF95BB8150D9F782EC84BDA99BFECFB2
:1000D00082E085BB5698089515BC9FE197BD9CE0D2
:1000E00096BD92E095BB5E984E99FECF91E095BD8E
:1000F000A99BFECF92E095BB9FE397BD28E032E03D
:10010000A99BFECF35BB99B1990F90788695892B25
:100110002150B1F7A99BFECF92E095BB9FE997BD17
:100120004E9BFECF5E9A90E00895A99BFECF92E091
:1001300095BB15BC2FE327BD2EE326BD22E824BDC9
:1001400021E025BD569A95BB91E020E042E852ECB3
:1001500032E0682F6923D9F054BD2095A99BFECFCA
:1001600035BB990FB1F792EC211101C092E894BD13
:10017000A99BFECF92E095BB92EC94BDA99BFECFCC
:1001800092E095BB9FE797BD569890E0089544BDD7
:10019000E5CF85E5CADF8BE8C8DF9ECFCF93C82FB8
:1001A00085E5C3DF84E4C1DF80E0BFDF80E1BDDF40
:1001B00093DF8C2FBADFCF918FCFCF93C82F85E5F8
:1001C000B4DF84E6B2DF8C2FB0DFCF9185CFCF9341
:1001D000DF93D82FC92F85E5A8DF89E6A6DF8D2F0D
:1001E000A4DF8C2FA2DFDF91CF9176CFCF93DF9367
:1001F00085E59BDF89E299DF6FDFEC016DDF20E0B1
:10020000382FC9018C2B9D2BDF91CF910895CF936F
:10021000DF93D82FC62F85E588DF80EC8D0F85DF33
:100220008C2FDF91CF9181CF8091C00087FFFCCFD1
:100230008091C60008959091C00095FFFCCF8093F7
:10024000C6000895EF92FF920F931F93CF93DF9311
:10025000082FEB01CBDF7C0185E567DF84E065DFFC
:1002600082E063DF80E161DF37DF8370A9F7C701D8
:10027000AEDF85E55ADF80EA58DF8FEF800F55DF6C
:10028000E88181E08E0F8883F0E0E45FFE4F80819B
:1002900094DFF12C0150110BF016110664F4E88183
:1002A00081E08E0F8883F0E0E45FFE4F80813DDFC8
:1002B00013DFF394F1CFDF91CF911F910F91FF9056
:1002C000EF900895CF93DF9391DFEC0183E066DF39
:1002D000CE01DF91CF917BCF0F931F93CF93DF930D
:1002E0008C0185E522DF80EE20DFD0E0C0E0F80160
:1002F000EC0FFD1F849119DF2196C830D105B9F7A5
:10030000DF91CF911F910F910895E7E0F1E0118205
:1003100092E0928380930D010895EF92FF920F93E4
:100320001F93CF93DF930F92CDB7DEB7062F1091B7
:100330000E0120910A0130910B017901442311F043
:10034000EE0CFF1CE80EF91E812F90E0442311F003
:1003500095958795820F931F90930B0180930A01C7
:10036000C70135DF8AE08983E1948FEF800FE822AF
:10037000F12EE11608F4FE2CFF2039F0BE016F5F6C
:100380007F4F8F2D5FDF1F199DDF112361F0BE01AD
:100390006F5F7F4F101720F0802F54DF101BF4CFBA
:1003A000812F50DF8FDF80E0B0DF0F90DF91CF91A2
:1003B0001F910F91FF90EF90089587E890E08CDFF8
:1003C00069E588E024DF60E088E021DFE2DE80FD8F
:1003D000FDCF80E09ACFDF92EF92FF920F931F93B1
:1003E000CF93DF937C01D62ED4DE883049F080ECA9
:1003F000DF91CF911F910F91FF90EF90DF9085CF0C
:10040000C0910D01D0910E01DC27CD27DC278E0194
:100410000E5F1F4F40910A0150910B01CA01DD2070
:1004200011F0880F991F8E0D9F1D9E01DD2011F088
:1004300036952795240F351F30930B0120930A0121
:10044000C6DE85E572DE80EA70DE8C2F81506DDEBF
:1004500085E56BDE84E269DE3FDE80930E0183E09A
:10046000E82EF12CE016F10648F436DEF701E45FE1
:10047000FE4F80838FEFE81AF80AF4CFF801E45FAB
:10048000FE4F108210920D01CE0103969093080149
:10049000CD5FC0930901DF91CF911F910F91FF9024
:1004A000EF90DF9008958FE380937E009FEF9BB9DC
:1004B0009FED95B990E890BF9DEC9093640092E019
:1004C0009093C00090E19093C40098E19093C10094
:1004D00096E09093C2005E9A92EC94BD9EE396BD26
:1004E00087BD81E085BD94E0392E23E0422E3AE0BD
:1004F000532ED2E04FE3742E5EE3652E67E1C62EE5
:1005000061E0D62E7AE1A72E71E0B72E8DDE8B3119
:10051000E9F78ADE082F8093070186DE182F809383
:10052000080182DE282E809309017EDE8E3071F76D
:10053000212685E1282620268CE0E82E81E0F82E71
:100540008701912C812C80910801909109019827B5
:1005500089279827881699064CF466DEF80181935E
:100560008F012826FFEF8F1A9F0AEDCF5DDE281638
:1005700019F080EB80930C0180910C01843109F417
:1005800079C108F080C0863009F43FC108F063C02B
:10059000823009F404C1833009F4B7C0813009F016
:1005A00061C097E39093050190E29093060115BC1A
:1005B00077BC66BC12E814BD85BD569AD5BB79DD03
:1005C00014BDA99BFECFD5BB569A73DDA99BFECF68
:1005D000D5BB77BC66BC81E085BD66E082E017DEF6
:1005E0004D9BEBDED6DD1092080180FF80C08EE0CF
:1005F00080930901E8E6F0E0ADE0B1E084918D93ED
:100600003196AA16BB06D1F78BE115DE982E8091A4
:10061000070111DE9826809108010DDE9826809151
:10062000090109DE98268EE006DE982610E000E03B
:100630008091080190910901982789279827081728
:1006400019070CF075C1F70181917F01F4DD98263F
:100650000F5F1F4FEDCF813109F4F8C028F48031CE
:1006600009F4DDC089EC41C0823109F45FC18331F6
:10067000C9F78FDD883009F0EEC041E060E480E02A
:1006800090E84BDEC1CF883109F407C118F58631F7
:1006900009F4F8C008F436C180910E01803AA9F43B
:1006A0008C2F90E090930B0180930A0186E090E1FB
:1006B0008EDD8091100181DD80E07FDD80E88C0F90
:1006C0007CDD82E17ADD87E069DD109208014092ED
:1006D000090144C08A3109F4F3C008F423C18B3105
:1006E00009F4F7C0803B09F0BDCF0FDE8DCF8BE062
:1006F00080930901E5E7F0E0ADE0B1E084918D93EE
:100700003196CA16DB06D1F77FCF8093090180911D
:100710000D018639C1F1C8F4813939F058F48138B6
:10072000E9F08039D9F0803851F4D0930E0110925D
:100730000D016ACF8439F9F018F58239C9F0D093E8
:10074000090180EC80930D015FCF8E3950F48C3914
:1007500028F48839F1F0D0F08A3989F710920E0127
:10076000E6CF8E39C9F08F3951F78091000105C06D
:1007700050920E01DCCF8091050180930E01D7CFFE
:1007800080910601FACF80910401F7CF8091030197
:10079000F4CF80910201F1CF80910101EECF8093DF
:1007A000090180910D01873909F150F48539A1F0D3
:1007B000C0F4843931F680910E0180930501B7CFE2
:1007C0008E39C9F08F39E1F0883909F0BACF8091BC
:1007D0000E0180930201ABCF80910E018093060140
:1007E000A6CF80910E0180930401A1CF80910E01CC
:1007F000809303019CCF80910E018093010197CFDC
:1008000080910E018093000192CF8091100180931E
:100810000A0180910F0180930B0180E066CFB9DC63
:10082000883071F08238B9F48FE790E055DD69E5E2
:1008300088E0EDDC60E088E0EADCABDC8830E9F7FA
:1008400084E0ACDC80E061DD2D9ADECEA2DC883075
:1008500021F0823859F080EC48CF69E588E0D7DC98
:1008600060E088E0D4DC95DC8238E9F780E04DDD9B
:100870002D98CACE9091060161E080E0990F990F02
:10088000AADDC2CE80910501873321F080E093E19B
:1008900060E0F6CF80E094E1FBCF80910F01811101
:1008A0000FC08C2F90E090930B0180930A0110925F
:1008B0000D0181E080930E0160E080E892E1E0CFDD
:1008C0001092080130920901C0930E0110920F019D
:1008D0002ECF8091100190E090930B0180930A013C
:1008E000029739F4109208013092090150920E01DA
:1008F000EDCF10920D0181E080930E0160E080E069
:1009000091E1BECF8091050100E013E1873311F43E
:1009100000E014E13EDC883009F09DCF40E060E269
:10092000C801AFCEC0911001CF73B6CE46DD6CCEFC
:0A093000892D81DCEBCDF894FFCF98
:00000001FF
