:1000000040C000004EC000004CC000004AC00000CC
:1000100048C0000046C0000044C0000042C00000CC
:1000200040C000003EC000003CC000003AC00000DC
:1000300038C0000036C0000034C0000032C00000EC
:1000400030C000002EC000002CC000002AC00000FC
:1000500028C0000026C0000024C0000022C000000C
:1000600020C000001EC00000000853544B35303043
:100070005F3220676F72504D564E65736172454D09
:10008000564E11241FBECFEFD8E0DEBFCDBF22E019
:10009000A0E0B1E001C01D92AF31B207E1F701D29B
:1000A0004AC4AECF84E085BD8FE787BD8BE092E088
:1000B000A99BFECF95BB8150D9F782EC84BDA99B4B
:1000C000FECF82E085BB5698089515BC97E297BD98
:1000D0009CE096BD92E095BB5E984E99FECF91E074
:1000E00095BDA99BFECF92E095BB9FE497BD28E00C
:1000F00032E0A99BFECF35BB99B1990F90788695D8
:10010000892B2150B1F7A99BFECF92E095BB97ECCC
:1001100097BD4E9BFECF5E9A90E00895A99BFECFBF
:1001200092E095BB15BC2FE427BD2EE426BD22E846
:1001300024BD21E025BD569A95BB91E020E042E820
:1001400052EC32E0682F6923D9F054BD2095A99B69
:10015000FECF35BB990FB1F792EC211101C092E8A7
:1001600094BDA99BFECF92E095BB92EC94BDA99B58
:10017000FECF92E095BB9FE997BD569890E0089519
:1001800044BDE5CFCF93C82F85E5C8DF84E4C6DF43
:1001900080E0C4DF80E1C2DF98DF8C2FBFDFCF912A
:1001A00094CFCF93C82F85E5B9DF84E6B7DF8C2FD6
:1001B000B5DFCF918ACFCF93DF93D82FC92F85E5B5
:1001C000ADDF89E6ABDF8D2FA9DF8C2FA7DFDF91B5
:1001D000CF917BCFCF93C82F85E5A0DF80E88C0F30
:1001E0009DDF73DFCF910895CF93DF93D82FC62F74
:1001F00085E594DF80EC8D0F91DF8C2FDF91CF911F
:100200008DCF8091C00087FFFCCF8091C6000895FC
:100210009091C00095FFFCCF8093C600089585E5BE
:100220007DDF84E07BDF82E079DF80E177DF4DDF17
:100230008370A9F783E0A6CFFF920F931F93CF930C
:10024000DF93082FEB0185E569DF80EA67DF8FEF39
:10025000800F64DFE88181E08E0F8883F0E0E45F47
:10026000FE4F80819EDFF12C0150110BF01611061C
:1002700064F4E88181E08E0F8883F0E0E45FFE4F54
:1002800080814CDF22DFF394F1CFDF91CF911F917A
:100290000F91FF9008950F931F93CF93DF938C01DD
:1002A00085E53CDF80EE3ADFD0E0C0E0F801EC0FFE
:1002B000FD1F849133DF2196C830D105B9F7DF9156
:1002C000CF911F910F9108951092090192E09093A0
:1002D000080180930D010895BF92CF92DF92EF92B3
:1002E000FF920F931F93CF93DF930F92CDB7DEB79B
:1002F000062FB42E10910E01C0900A01D0900B0170
:100300007601442311F0EE0CFF1CE80EF91EC70124
:1003100052DF8AE08983E1948FEF800FE822F12E8B
:10032000E11608F4FE2CFF2051F0BE016F5F7F4FF5
:100330008F2D82DF812F8F19F82E71DF01C0F12EF2
:10034000FF2061F0BE016F5F7F4FF01620F0802F1D
:1003500073DFF01AF2CF8F2D6FDF61DF812F90E016
:10036000BB2011F0959587958C0D9D1D90930B01E9
:1003700080930A0180E0A8DF0F90DF91CF911F9159
:100380000F91FF90EF90DF90CF90BF9008958AE794
:1003900090E081DF69E588E027DF60E088E024DF26
:1003A0008BE018DF80FDFCCF80E08ECF8F929F9294
:1003B000BF92CF92DF92EF92FF920F931F93CF9352
:1003C000DF937C01B62E8BE005DF883069F080EC8E
:1003D000DF91CF911F910F91FF90EF90DF90CF9021
:1003E000BF909F908F9070CFC0910D01D0E0DC2F17
:1003F000CC2780910E01C80FD11D6E0182E0C80E7E
:10040000D11C00910A0110910B01C801BB2011F011
:10041000880F991F8E0D9F1DCEDE85E57FDE80EA59
:100420007DDE8C2F81507ADE85E578DE84E276DE13
:100430004CDE80930E013CE0E32E31E0F32EFE0112
:10044000E45FFE4F4F01FFEFEF1AFF0AE814F904D3
:1004500021F03BDEF7018283F6CFCE01BB2011F005
:1004600096958795080F191F10930B0100930A01A9
:10047000F601E45FFE4F108210920D01CE0103964B
:1004800090930901CD5FC0930801DF91CF911F9137
:100490000F91FF90EF90DF90CF90BF909F908F9043
:1004A00008958FE380937E008FEF8BB98FED85B930
:1004B00080E880BF8DEC8093640082E08093C00070
:1004C00090E19093C40098E19093C10096E09093DE
:1004D000C2005E9A92EC94BD2EE426BD3FE437BD87
:1004E00091E095BD47E34093060140E24093070148
:1004F00015BC37BD26BDC2E8C4BD95BD569A85BBA7
:10050000D1DDC4BDA99BFECF82E085BB569ACADD72
:10051000A99BFECF82E085BB8FE487BD8EE486BDBC
:1005200081E085BD66E082E05FDE4D9B30DF8BE0E1
:1005300051DEC0E0823809F03CC055E1552E60EB39
:10054000662E04E073E0972EEAE08E2EF2E07F2E16
:10055000A7E1AA2EA1E0BA2E54DE8B31E9F751DED5
:10056000482E809305014DDED82F8093090149DE86
:10057000C82F8093080145DE8E3071F7342C3C265D
:1005800035243D263CE0E32E31E0F32E8D2F90E024
:10059000982F8827C80FD92FD11DC45FDE4F670160
:1005A000CC15DD05C1F02DDEF60181936F013826F3
:1005B000F7CF8C2F0FDE2CDECF5FC031D1F7259A1D
:1005C0001D9A2FEF89E698E1215080409040E1F795
:1005D00000C00000F5CF15DE381260920C0180914A
:1005E0000C01843109F445C108F05CC0863009F47F
:1005F0000DC108F03EC0823009F4D2C0833009F446
:1006000085C0813009F03CC0109209018BE08093D5
:100610000801E8E6F0E0ADE0B1E084918D93319619
:10062000AA16BB06D1F78BE1F3DDD82E842DF0DDC1
:10063000D826D09109018D2FEBDDD826C091080175
:100640008C2FE6DDD8268EE0E3DDD8268D2F90E0D6
:10065000982F8827C80FD92FD11DC45FDE4FCE1524
:10066000DF0509F465C1F70181917F01D1DDD8264D
:10067000F6CF813109F4EAC028F4803109F4D0C002
:1006800089EC42C0823109F451C18331C9F78BE052
:10069000A1DD883009F0E0C041E060E480E090E84E
:1006A0001BDEC1CF883109F4F7C018F5863109F493
:1006B000E8C008F426C180910E01803AA9F4812F88
:1006C00090E090930B0180930A0186E090E173DD46
:1006D0008091100166DD80E064DD80E8810F61DDDE
:1006E00082E15FDD87E04EDD109209019092080102
:1006F00036C08A3109F4E3C008F414C18B3109F41F
:10070000E7C0803B09F0BCCFDFDD8DCF80930801CF
:1007100080910D018639C1F1C8F4813939F058F45E
:100720008138E9F08039D9F0803851F470920E01A7
:1007300010920D0178CF8439F9F018F58239C9F09B
:100740007092080180EC80930D016DCF8E3950F4CA
:100750008C3928F48839F1F0D0F08A3989F7109271
:100760000E01E6CF8E39C9F08F3951F78091000123
:1007700005C080920E01DCCF8091060180930E01AE
:10078000D7CF80910701FACF80910401F7CF8091F4
:100790000301F4CF80910201F1CF80910101EECFEE
:1007A0008093080180910D01873909F150F4853952
:1007B000A1F0C0F4843931F680910E0180930601D6
:1007C000B7CF8E39C9F08F39E1F0883909F0BACF47
:1007D00080910E0180930201ABCF80910E01809336
:1007E0000701A6CF80910E0180930401A1CF8091D3
:1007F0000E01809303019CCF80910E018093010133
:1008000097CF80910E018093000192CF80911001CB
:1008100080930A0180910F0180930B0180E074CFD7
:100820008BE0D8DC883079F08238B1F482E790E050
:1008300032DD69E588E0D8DC60E088E0D5DC8BE07B
:10084000C9DC8830E1F784E09DDCE8CF8BE0C2DCD6
:10085000883021F0823811F380EC56CF69E588E0CA
:10086000C3DC60E088E0C0DC8BE0B4DC8238E1F718
:10087000D5CF9091070161E080E0990F990F96DD47
:10088000D2CE80910601873321F080E093E160E0D1
:10089000F6CF80E094E1FBCF80910F0181110FC072
:1008A000812F90E090930B0180930A0110920D012B
:1008B00081E080930E0160E080E892E1E0CF109249
:1008C00009010093080110930E0110920F0130CF1F
:1008D0008091100190E090930B0180930A010297A0
:1008E00039F4109209010093080180920E01EDCFB6
:1008F00010920D0181E080930E0160E080E091E1B3
:10090000BECF80910601C0E0D3E1873311F4C0E08F
:10091000D4E18BE05FDC883009F09ECF40E060E2FC
:10092000CE01BECE109110011F73C5CE30DD7BCE3F
:0A0930008D2D6EDC11CEF894FFCF80
:00000001FF
