:1000000040C000004EC000004CC000004AC00000CC
:1000100048C0000046C0000044C0000042C00000CC
:1000200040C000003EC000003CC000003AC00000DC
:1000300038C0000036C0000034C0000032C00000EC
:1000400030C000002EC000002CC000002AC00000FC
:1000500028C0000026C0000024C0000022C000000C
:1000600020C000001EC00000000853544B35303043
:100070005F3220676F72504D564E65736172454D09
:10008000564E11241FBECFEFD8E0DEBFCDBF22E019
:10009000A0E0B1E001C01D92AF31B207E1F703D299
:1000A00058C4AECF84E085BD8FE787BD8BE092E07A
:1000B000A99BFECF95BB8150D9F782EC84BDA99B4B
:1000C000FECF82E085BB5698089515BC9FE197BD91
:1000D0009CE096BD92E095BB5E984E99FECF91E074
:1000E00095BDA99BFECF92E095BB9FE397BD28E00D
:1000F00032E0A99BFECF35BB99B1990F90788695D8
:10010000892B2150B1F7A99BFECF92E095BB9FE9C7
:1001100097BD4E9BFECF5E9A90E00895A99BFECFBF
:1001200092E095BB15BC2FE327BD2EE326BD22E848
:1001300024BD21E025BD569A95BB91E020E042E820
:1001400052EC32E0682F6923D9F054BD2095A99B69
:10015000FECF35BB990FB1F792EC211101C092E8A7
:1001600094BDA99BFECF92E095BB92EC94BDA99B58
:10017000FECF92E095BB9FE797BD569890E008951B
:1001800044BDE5CFCF93C82F85E5C8DF84E4C6DF43
:1001900080E0C4DF80E1C2DF98DF8C2FBFDFCF912A
:1001A00094CFCF93C82F85E5B9DF84E6B7DF8C2FD6
:1001B000B5DFCF918ACFCF93DF93D82FC92F85E5B5
:1001C000ADDF89E6ABDF8D2FA9DF8C2FA7DFDF91B5
:1001D000CF917BCFCF93DF9385E5A0DF89E29EDFD0
:1001E00074DFEC0172DF20E0382FC9018C2B9D2BCE
:1001F000DF91CF910895CF93C82F85E58FDF80E8F9
:100200008C0F8CDF62DFCF910895CF93DF93D82FCF
:10021000C62F85E583DF80EC8D0F80DF8C2FDF918B
:10022000CF917CCF8091C00087FFFCCF8091C6002A
:1002300008959091C00095FFFCCF8093C60008956B
:10024000EF92FF920F931F93CF93DF93082FEB0151
:10025000C1DF7C0185E562DF84E060DF82E05EDF94
:1002600080E15CDF32DF8370A9F7C701A4DF85E599
:1002700055DF80EA53DF8FEF800F50DFE88181E0A8
:100280008E0F8883F0E0E45FFE4F80818ADFF12CDF
:100290000150110BF016110664F4E88181E08E0F15
:1002A0008883F0E0E45FFE4F808138DF0EDFF39457
:1002B000F1CFDF91CF911F910F91FF90EF900895B3
:1002C000CF93DF9387DFEC0183E05CDFCE01DF912A
:1002D000CF9171CF0F931F93CF93DF938C0185E55F
:1002E0001DDF80EE1BDFD0E0C0E0F801EC0FFD1F4A
:1002F000849114DF2196C830D105B9F7DF91CF91F1
:100300001F910F910895E7E0F1E0118292E092834E
:1003100080930D010895EF92FF920F931F93CF9357
:10032000DF930F92CDB7DEB7062F10910E0120910B
:100330000A0130910B017901442311F0EE0CFF1CEE
:10034000E80EF91E812F90E0442311F095958795D2
:10035000820F931F90930B0180930A01C7012BDF3B
:100360008AE08983E1948FEF800FE822F12EE11675
:1003700008F4FE2CFF2039F0BE016F5F7F4F8F2DF8
:100380005FDF1F199DDF112361F0BE016F5F7F4F9B
:10039000101720F0802F54DF101BF4CF812F50DF77
:1003A0008FDF80E0B0DF0F90DF91CF911F910F9131
:1003B000FF90EF9008958AE790E08CDF69E588E090
:1003C00024DF60E088E021DF8BE015DF80FDFCCFDB
:1003D00080E099CFDF92EF92FF920F931F93CF931C
:1003E000DF937C01D62E8BE006DF883049F080EC6D
:1003F000DF91CF911F910F91FF90EF90DF9083CF0E
:10040000C0910D01D0910E01DC27CD27DC278E0194
:100410000E5F1F4F40910A0150910B01CA01DD2070
:1004200011F0880F991F8E0D9F1D9E01DD2011F088
:1004300036952795240F351F30930B0120930A0121
:10044000BADE85E56BDE80EA69DE8C2F815066DEE0
:1004500085E564DE84E262DE38DE80930E0183E0AF
:10046000E82EF12CE016F10648F42FDEF701E45FE8
:10047000FE4F80838FEFE81AF80AF4CFF801E45FAB
:10048000FE4F108210920D01CE0103969093080149
:10049000CD5FC0930901DF91CF911F910F91FF9024
:1004A000EF90DF9008958FE380937E009FEF9BB9DC
:1004B0009FED95B990E890BF9DEC9093640092E019
:1004C0009093C00020E12093C40028E12093C10054
:1004D00026E02093C2005E9A22EC24BD3EE336BDA6
:1004E00087BD21E025BD47E34093050140E24093ED
:1004F000060115BC87BD36BDD2E8D4BD25BD569AD0
:1005000095BBD0DDD4BDA99BFECF82E085BB569ABA
:10051000C9DDA99BFECF82E085BB8FE387BD8EE35B
:1005200086BD81E085BD66E082E06FDE4D9B43DFE6
:100530008BE061DE8830B1F0823809F451C0C0E050
:100540008C2F59DE76DECF5FC031D1F7259A1D9A08
:100550002FEF89E698E1215080409040E1F700C0FC
:100560000000F5CF2D9A95E1592E20EB622ED4E0B4
:1005700033E0F32E4AE0E42E52E0752E67E1A62E1A
:1005800061E0B62E4FDE8B31E9F74CDE082F809309
:10059000070148DE182F8093080144DE482E80931F
:1005A000090140DE8E3071F74126452440268CE05B
:1005B000C82E81E0D82E460110E000E080910801AD
:1005C000909109019827892798270817190754F44B
:1005D00029DEF40181934F0148260F5F1F4FEECFB4
:1005E0002D98C1CF1FDE481260920C0180910C0142
:1005F000843109F44CC108F05DC0863009F40EC1A5
:1006000008F03FC0823009F4D3C0833009F486C0BB
:10061000813009F03DC0109208018BE08093090100
:10062000E8E6F0E0ADE0B1E084918D933196AA1652
:10063000BB06D1F78BE1FDDD982E80910701F9DD36
:10064000982680910801F5DD982680910901F1DD59
:1006500098268EE0EEDD982610E000E080910801FB
:1006600090910901982789279827081719070CF0F6
:100670006DC1F60181916F01DCDD98260F5F1F4F80
:10068000EDCF813109F4EDC028F4803109F4D0C0F8
:1006900089EC42C0823109F457C18331C9F78BE03C
:1006A000AADD883009F0E3C041E060E480E090E832
:1006B00032DEC0CF883109F4FDC018F5863109F467
:1006C000EEC008F42CC180910E01803AA9F48C2F61
:1006D00090E090930B0180930A0186E090E16BDD3E
:1006E000809110015EDD80E05CDD80E88C0F59DDDB
:1006F00082E157DD87E046DD10920801F0920901A2
:1007000036C08A3109F4E9C008F41AC18B3109F402
:10071000EDC0803B09F0BCCFF6DD8CCF80930901A2
:1007200080910D018639C1F1C8F4813939F058F44E
:100730008138E9F08039D9F0803851F470920E0197
:1007400010920D0177CF8439F9F018F58239C9F08C
:100750007092090180EC80930D016CCF8E3950F4BA
:100760008C3928F48839F1F0D0F08A3989F7109261
:100770000E01E6CF8E39C9F08F3951F78091000113
:1007800005C0E0920E01DCCF8091050180930E013F
:10079000D7CF80910601FACF80910401F7CF8091E5
:1007A0000301F4CF80910201F1CF80910101EECFDE
:1007B0008093090180910D01873909F150F4853941
:1007C000A1F0C0F4843931F680910E0180930501C7
:1007D000B7CF8E39C9F08F39E1F0883909F0BACF37
:1007E00080910E0180930201ABCF80910E01809326
:1007F0000601A6CF80910E0180930401A1CF8091C4
:100800000E01809303019CCF80910E018093010122
:1008100097CF80910E018093000192CF80911001BB
:1008200080930A0180910F0180930B0180E074CFC7
:100830008BE0E1DC883079F08238C9F482E790E01F
:1008400049DD69E588E0E1DC60E088E0DEDC8BE042
:10085000D2DC8830E1F784E095DC80E054DD2D9A2D
:10086000E9CE8BE0C8DC883021F0823861F080EC82
:1008700053CF69E588E0C9DC60E088E0C6DC8BE046
:10088000BADC8238E1F780E03EDD2D98D3CE90913E
:10089000060161E080E0990F990F9CDDCBCE80913D
:1008A0000501873321F080E093E160E0F6CF80E03E
:1008B00094E1FBCF80910F0181110FC08C2F90E04C
:1008C00090930B0180930A0110920D0181E08093B7
:1008D0000E0160E080E892E1E0CF10920801D09331
:1008E0000901C0930E0110920F012ACF80911001CF
:1008F00090E090930B0180930A01029739F41092D3
:100900000801D0930901E0920E01EDCF10920D0184
:1009100081E080930E0160E080E091E1BECF8091A4
:10092000050100E013E1873311F400E014E18BE0EE
:1009300062DC883009F09BCF40E060E2C801B8CEAD
:10094000C0911001CF73BFCE36DD74CE892D71DC1E
:0609500019CEF894FFCF60
:00000001FF
